{
  "_format": "hh-sol-artifact-1",
  "contractName": "VotingNft",
  "sourceName": "contracts/VotingNft.sol",
  "abi": [
    {
      "inputs": [],
      "stateMutability": "nonpayable",
      "type": "constructor"
    },
    {
      "inputs": [],
      "name": "VotingNft__YouHaveVotedAlready",
      "type": "error"
    },
    {
      "inputs": [
        {
          "internalType": "uint256",
          "name": "",
          "type": "uint256"
        }
      ],
      "name": "candidates",
      "outputs": [
        {
          "internalType": "string",
          "name": "s_fullName",
          "type": "string"
        },
        {
          "internalType": "string",
          "name": "s_department",
          "type": "string"
        },
        {
          "internalType": "string",
          "name": "s_matricNumber",
          "type": "string"
        },
        {
          "internalType": "string",
          "name": "image",
          "type": "string"
        },
        {
          "internalType": "uint256",
          "name": "s_voteCount",
          "type": "uint256"
        },
        {
          "internalType": "string",
          "name": "s_role",
          "type": "string"
        }
      ],
      "stateMutability": "view",
      "type": "function"
    },
    {
      "inputs": [
        {
          "internalType": "uint256",
          "name": "index",
          "type": "uint256"
        }
      ],
      "name": "vote",
      "outputs": [],
      "stateMutability": "nonpayable",
      "type": "function"
    },
    {
      "inputs": [],
      "name": "winner",
      "outputs": [
        {
          "internalType": "string",
          "name": "",
          "type": "string"
        },
        {
          "internalType": "string",
          "name": "",
          "type": "string"
        },
        {
          "internalType": "string",
          "name": "",
          "type": "string"
        },
        {
          "internalType": "string",
          "name": "",
          "type": "string"
        },
        {
          "internalType": "uint256",
          "name": "",
          "type": "uint256"
        },
        {
          "internalType": "string",
          "name": "",
          "type": "string"
        }
      ],
      "stateMutability": "view",
      "type": "function"
    }
  ],
  "bytecode": "0x608060405234801561001057600080fd5b50336000806101000a81548173ffffffffffffffffffffffffffffffffffffffff021916908373ffffffffffffffffffffffffffffffffffffffff160217905550610c7e806100606000396000f3fe608060405234801561001057600080fd5b50600436106100415760003560e01c80630121b93f146100465780633477ee2e14610062578063dfbf53ae14610097575b600080fd5b610060600480360381019061005b9190610991565b6100ba565b005b61007c60048036038101906100779190610991565b6101d5565b60405161008e96959493929190610a66565b60405180910390f35b61009f6104c9565b6040516100b196959493929190610a66565b60405180910390f35b600160003373ffffffffffffffffffffffffffffffffffffffff1673ffffffffffffffffffffffffffffffffffffffff16815260200190815260200160002060009054906101000a900460ff161561013e576040517fa5a0d20100000000000000000000000000000000000000000000000000000000815260040160405180910390fd5b60016002828154811061015457610153610aea565b5b906000526020600020906006020160040160008282546101749190610b48565b9250508190555060018060003373ffffffffffffffffffffffffffffffffffffffff1673ffffffffffffffffffffffffffffffffffffffff16815260200190815260200160002060006101000a81548160ff02191690831515021790555050565b600281815481106101e557600080fd5b906000526020600020906006020160009150905080600001805461020890610bcd565b80601f016020809104026020016040519081016040528092919081815260200182805461023490610bcd565b80156102815780601f1061025657610100808354040283529160200191610281565b820191906000526020600020905b81548152906001019060200180831161026457829003601f168201915b50505050509080600101805461029690610bcd565b80601f01602080910402602001604051908101604052809291908181526020018280546102c290610bcd565b801561030f5780601f106102e45761010080835404028352916020019161030f565b820191906000526020600020905b8154815290600101906020018083116102f257829003601f168201915b50505050509080600201805461032490610bcd565b80601f016020809104026020016040519081016040528092919081815260200182805461035090610bcd565b801561039d5780601f106103725761010080835404028352916020019161039d565b820191906000526020600020905b81548152906001019060200180831161038057829003601f168201915b5050505050908060030180546103b290610bcd565b80601f01602080910402602001604051908101604052809291908181526020018280546103de90610bcd565b801561042b5780601f106104005761010080835404028352916020019161042b565b820191906000526020600020905b81548152906001019060200180831161040e57829003601f168201915b50505050509080600401549080600501805461044690610bcd565b80601f016020809104026020016040519081016040528092919081815260200182805461047290610bcd565b80156104bf5780601f10610494576101008083540402835291602001916104bf565b820191906000526020600020905b8154815290600101906020018083116104a257829003601f168201915b5050505050905086565b6060806060806000606060008054906101000a900473ffffffffffffffffffffffffffffffffffffffff1673ffffffffffffffffffffffffffffffffffffffff163373ffffffffffffffffffffffffffffffffffffffff161461052b57600080fd5b6000805b6002805490508110156105a557816002828154811061055157610550610aea565b5b9060005260206000209060060201600401541115610592576002818154811061057d5761057c610aea565b5b90600052602060002090600602016004015491505b808061059d90610bff565b91505061052f565b600281815481106105b9576105b8610aea565b5b9060005260206000209060060201600001600282815481106105de576105dd610aea565b5b90600052602060002090600602016001016002838154811061060357610602610aea565b5b90600052602060002090600602016002016002848154811061062857610627610aea565b5b90600052602060002090600602016003016002858154811061064d5761064c610aea565b5b9060005260206000209060060201600401546002868154811061067357610672610aea565b5b906000526020600020906006020160050185805461069090610bcd565b80601f01602080910402602001604051908101604052809291908181526020018280546106bc90610bcd565b80156107095780601f106106de57610100808354040283529160200191610709565b820191906000526020600020905b8154815290600101906020018083116106ec57829003601f168201915b5050505050955084805461071c90610bcd565b80601f016020809104026020016040519081016040528092919081815260200182805461074890610bcd565b80156107955780601f1061076a57610100808354040283529160200191610795565b820191906000526020600020905b81548152906001019060200180831161077857829003601f168201915b505050505094508380546107a890610bcd565b80601f01602080910402602001604051908101604052809291908181526020018280546107d490610bcd565b80156108215780601f106107f657610100808354040283529160200191610821565b820191906000526020600020905b81548152906001019060200180831161080457829003601f168201915b5050505050935082805461083490610bcd565b80601f016020809104026020016040519081016040528092919081815260200182805461086090610bcd565b80156108ad5780601f10610882576101008083540402835291602001916108ad565b820191906000526020600020905b81548152906001019060200180831161089057829003601f168201915b505050505092508080546108c090610bcd565b80601f01602080910402602001604051908101604052809291908181526020018280546108ec90610bcd565b80156109395780601f1061090e57610100808354040283529160200191610939565b820191906000526020600020905b81548152906001019060200180831161091c57829003601f168201915b505050505090509750975097509750975097505050909192939495565b600080fd5b6000819050919050565b61096e8161095b565b811461097957600080fd5b50565b60008135905061098b81610965565b92915050565b6000602082840312156109a7576109a6610956565b5b60006109b58482850161097c565b91505092915050565b600081519050919050565b600082825260208201905092915050565b60005b838110156109f85780820151818401526020810190506109dd565b83811115610a07576000848401525b50505050565b6000601f19601f8301169050919050565b6000610a29826109be565b610a3381856109c9565b9350610a438185602086016109da565b610a4c81610a0d565b840191505092915050565b610a608161095b565b82525050565b600060c0820190508181036000830152610a808189610a1e565b90508181036020830152610a948188610a1e565b90508181036040830152610aa88187610a1e565b90508181036060830152610abc8186610a1e565b9050610acb6080830185610a57565b81810360a0830152610add8184610a1e565b9050979650505050505050565b7f4e487b7100000000000000000000000000000000000000000000000000000000600052603260045260246000fd5b7f4e487b7100000000000000000000000000000000000000000000000000000000600052601160045260246000fd5b6000610b538261095b565b9150610b5e8361095b565b9250827fffffffffffffffffffffffffffffffffffffffffffffffffffffffffffffffff03821115610b9357610b92610b19565b5b828201905092915050565b7f4e487b7100000000000000000000000000000000000000000000000000000000600052602260045260246000fd5b60006002820490506001821680610be557607f821691505b60208210811415610bf957610bf8610b9e565b5b50919050565b6000610c0a8261095b565b91507fffffffffffffffffffffffffffffffffffffffffffffffffffffffffffffffff821415610c3d57610c3c610b19565b5b60018201905091905056fea26469706673582212205e6c70ef4f726da9f38a8b9aeb7d86fe1a7254078728ddd32edaaa802c2fd59364736f6c63430008090033",
  "linkReferences": {},
  "deployedLinkReferences": {}
}