{
  "address": "0xB3Ff2b3700f5a5142d3328542A480d0E92e33a23",
  "abi": [
    {
      "inputs": [
        {
          "internalType": "uint64",
          "name": "subscriptionId",
          "type": "uint64"
        }
      ],
      "stateMutability": "nonpayable",
      "type": "constructor"
    },
    {
      "inputs": [],
      "name": "NumberGuessingGame__NotEnoughEthEntered",
      "type": "error"
    },
    {
      "inputs": [],
      "name": "NumberGuessingGame__YOU_FAILED_TRY_AGAIN",
      "type": "error"
    },
    {
      "inputs": [
        {
          "internalType": "address",
          "name": "have",
          "type": "address"
        },
        {
          "internalType": "address",
          "name": "want",
          "type": "address"
        }
      ],
      "name": "OnlyCoordinatorCanFulfill",
      "type": "error"
    },
    {
      "anonymous": false,
      "inputs": [
        {
          "indexed": true,
          "internalType": "address",
          "name": "from",
          "type": "address"
        },
        {
          "indexed": true,
          "internalType": "address",
          "name": "to",
          "type": "address"
        }
      ],
      "name": "OwnershipTransferRequested",
      "type": "event"
    },
    {
      "anonymous": false,
      "inputs": [
        {
          "indexed": true,
          "internalType": "address",
          "name": "from",
          "type": "address"
        },
        {
          "indexed": true,
          "internalType": "address",
          "name": "to",
          "type": "address"
        }
      ],
      "name": "OwnershipTransferred",
      "type": "event"
    },
    {
      "anonymous": false,
      "inputs": [
        {
          "indexed": false,
          "internalType": "uint256",
          "name": "requestId",
          "type": "uint256"
        },
        {
          "indexed": false,
          "internalType": "uint256[]",
          "name": "randomWords",
          "type": "uint256[]"
        }
      ],
      "name": "RequestFulfilled",
      "type": "event"
    },
    {
      "anonymous": false,
      "inputs": [
        {
          "indexed": false,
          "internalType": "uint256",
          "name": "requestId",
          "type": "uint256"
        },
        {
          "indexed": false,
          "internalType": "uint32",
          "name": "numWords",
          "type": "uint32"
        }
      ],
      "name": "RequestSent",
      "type": "event"
    },
    {
      "inputs": [],
      "name": "acceptOwnership",
      "outputs": [],
      "stateMutability": "nonpayable",
      "type": "function"
    },
    {
      "inputs": [
        {
          "internalType": "uint256",
          "name": "",
          "type": "uint256"
        }
      ],
      "name": "correctNum",
      "outputs": [
        {
          "internalType": "uint256",
          "name": "",
          "type": "uint256"
        }
      ],
      "stateMutability": "view",
      "type": "function"
    },
    {
      "inputs": [],
      "name": "enterGame",
      "outputs": [],
      "stateMutability": "payable",
      "type": "function"
    },
    {
      "inputs": [],
      "name": "getAllPlayers",
      "outputs": [
        {
          "internalType": "uint256",
          "name": "",
          "type": "uint256"
        }
      ],
      "stateMutability": "view",
      "type": "function"
    },
    {
      "inputs": [],
      "name": "getCorrectNumber",
      "outputs": [
        {
          "internalType": "uint256",
          "name": "",
          "type": "uint256"
        }
      ],
      "stateMutability": "view",
      "type": "function"
    },
    {
      "inputs": [],
      "name": "getRecentWinner",
      "outputs": [
        {
          "internalType": "address",
          "name": "",
          "type": "address"
        }
      ],
      "stateMutability": "view",
      "type": "function"
    },
    {
      "inputs": [
        {
          "internalType": "uint256",
          "name": "_requestId",
          "type": "uint256"
        }
      ],
      "name": "getRequestStatus",
      "outputs": [
        {
          "internalType": "bool",
          "name": "fulfilled",
          "type": "bool"
        },
        {
          "internalType": "uint256[]",
          "name": "randomWords",
          "type": "uint256[]"
        }
      ],
      "stateMutability": "nonpayable",
      "type": "function"
    },
    {
      "inputs": [
        {
          "internalType": "uint256",
          "name": "guessedNum",
          "type": "uint256"
        }
      ],
      "name": "guessTheNumber",
      "outputs": [],
      "stateMutability": "payable",
      "type": "function"
    },
    {
      "inputs": [],
      "name": "lastRequestId",
      "outputs": [
        {
          "internalType": "uint256",
          "name": "",
          "type": "uint256"
        }
      ],
      "stateMutability": "view",
      "type": "function"
    },
    {
      "inputs": [],
      "name": "newNum",
      "outputs": [
        {
          "internalType": "uint256",
          "name": "",
          "type": "uint256"
        }
      ],
      "stateMutability": "view",
      "type": "function"
    },
    {
      "inputs": [],
      "name": "owner",
      "outputs": [
        {
          "internalType": "address",
          "name": "",
          "type": "address"
        }
      ],
      "stateMutability": "view",
      "type": "function"
    },
    {
      "inputs": [
        {
          "internalType": "address",
          "name": "",
          "type": "address"
        }
      ],
      "name": "paid",
      "outputs": [
        {
          "internalType": "bool",
          "name": "",
          "type": "bool"
        }
      ],
      "stateMutability": "view",
      "type": "function"
    },
    {
      "inputs": [
        {
          "internalType": "uint256",
          "name": "",
          "type": "uint256"
        }
      ],
      "name": "players",
      "outputs": [
        {
          "internalType": "address",
          "name": "",
          "type": "address"
        }
      ],
      "stateMutability": "view",
      "type": "function"
    },
    {
      "inputs": [
        {
          "internalType": "uint256",
          "name": "requestId",
          "type": "uint256"
        },
        {
          "internalType": "uint256[]",
          "name": "randomWords",
          "type": "uint256[]"
        }
      ],
      "name": "rawFulfillRandomWords",
      "outputs": [],
      "stateMutability": "nonpayable",
      "type": "function"
    },
    {
      "inputs": [
        {
          "internalType": "uint256",
          "name": "",
          "type": "uint256"
        }
      ],
      "name": "requestIds",
      "outputs": [
        {
          "internalType": "uint256",
          "name": "",
          "type": "uint256"
        }
      ],
      "stateMutability": "view",
      "type": "function"
    },
    {
      "inputs": [],
      "name": "requestRandomWords",
      "outputs": [
        {
          "internalType": "uint256",
          "name": "requestId",
          "type": "uint256"
        }
      ],
      "stateMutability": "nonpayable",
      "type": "function"
    },
    {
      "inputs": [],
      "name": "s_entranceFee",
      "outputs": [
        {
          "internalType": "uint256",
          "name": "",
          "type": "uint256"
        }
      ],
      "stateMutability": "view",
      "type": "function"
    },
    {
      "inputs": [],
      "name": "s_recentWinner",
      "outputs": [
        {
          "internalType": "address",
          "name": "",
          "type": "address"
        }
      ],
      "stateMutability": "view",
      "type": "function"
    },
    {
      "inputs": [
        {
          "internalType": "uint256",
          "name": "",
          "type": "uint256"
        }
      ],
      "name": "s_requests",
      "outputs": [
        {
          "internalType": "bool",
          "name": "fulfilled",
          "type": "bool"
        },
        {
          "internalType": "bool",
          "name": "exists",
          "type": "bool"
        }
      ],
      "stateMutability": "view",
      "type": "function"
    },
    {
      "inputs": [
        {
          "internalType": "address",
          "name": "to",
          "type": "address"
        }
      ],
      "name": "transferOwnership",
      "outputs": [],
      "stateMutability": "nonpayable",
      "type": "function"
    }
  ],
  "transactionHash": "0x389a14c17edaa0fac43a80f63be1cf13eec6ac92e1c1eeff9791ea07f4938dc3",
  "args": [
    2673
  ],
  "numDeployments": 4,
  "solcInputHash": "d2be4c5e437fbb31a758fd122b02a1b7",
  "bytecode": "0x60a0604052662386f26fc100006003557f79d3d8832d904592c0bf9818b621522c988bb8b0c05cdc3b15aea1b6e8db0c1560001b600e55620186a0600f60006101000a81548163ffffffff021916908363ffffffff1602179055506003600f60046101000a81548161ffff021916908361ffff1602179055506002600f60066101000a81548163ffffffff021916908363ffffffff160217905550348015620000a757600080fd5b50604051620021b7380380620021b78339818101604052810190620000cd919062000417565b33806000732ca8e0c643bde4c2e08ab1fa0da3401adad7734d8073ffffffffffffffffffffffffffffffffffffffff1660808173ffffffffffffffffffffffffffffffffffffffff168152505050600073ffffffffffffffffffffffffffffffffffffffff168273ffffffffffffffffffffffffffffffffffffffff1614156200018e576040517f08c379a00000000000000000000000000000000000000000000000000000000081526004016200018590620004aa565b60405180910390fd5b816000806101000a81548173ffffffffffffffffffffffffffffffffffffffff021916908373ffffffffffffffffffffffffffffffffffffffff160217905550600073ffffffffffffffffffffffffffffffffffffffff168173ffffffffffffffffffffffffffffffffffffffff1614620002155762000214816200029d60201b60201c565b5b505050732ca8e0c643bde4c2e08ab1fa0da3401adad7734d600960006101000a81548173ffffffffffffffffffffffffffffffffffffffff021916908373ffffffffffffffffffffffffffffffffffffffff16021790555080600960146101000a81548167ffffffffffffffff021916908367ffffffffffffffff160217905550506200053e565b3373ffffffffffffffffffffffffffffffffffffffff168173ffffffffffffffffffffffffffffffffffffffff1614156200030f576040517f08c379a000000000000000000000000000000000000000000000000000000000815260040162000306906200051c565b60405180910390fd5b80600160006101000a81548173ffffffffffffffffffffffffffffffffffffffff021916908373ffffffffffffffffffffffffffffffffffffffff1602179055508073ffffffffffffffffffffffffffffffffffffffff1660008054906101000a900473ffffffffffffffffffffffffffffffffffffffff1673ffffffffffffffffffffffffffffffffffffffff167fed8889f560326eb138920d842192f0eb3dd22b4f139c87a2c57538e05bae127860405160405180910390a350565b600080fd5b600067ffffffffffffffff82169050919050565b620003f181620003d2565b8114620003fd57600080fd5b50565b6000815190506200041181620003e6565b92915050565b60006020828403121562000430576200042f620003cd565b5b6000620004408482850162000400565b91505092915050565b600082825260208201905092915050565b7f43616e6e6f7420736574206f776e657220746f207a65726f0000000000000000600082015250565b60006200049260188362000449565b91506200049f826200045a565b602082019050919050565b60006020820190508181036000830152620004c58162000483565b9050919050565b7f43616e6e6f74207472616e7366657220746f2073656c66000000000000000000600082015250565b60006200050460178362000449565b91506200051182620004cc565b602082019050919050565b600060208201905081810360008301526200053781620004f5565b9050919050565b608051611c5662000561600039600081816104a801526104fc0152611c566000f3fe60806040526004361061011f5760003560e01c8063a340cf79116100a0578063e29710fe11610064578063e29710fe146103bf578063efa1c482146103ea578063f2fde38b14610415578063f71d96cb1461043e578063fc2a88c31461047b5761011f565b8063a340cf79146102c0578063d2a2b579146102fd578063d4f639d71461033a578063d8a4676f14610356578063e0c86289146103945761011f565b80638638b0c6116100e75780638638b0c6146101c45780638796ba8c146101ef5780638da5cb5b1461022c578063a168fa8914610257578063a2eaacac146102955761011f565b80631fe543e314610124578063218bd5771461014d578063473f1ddc146101575780635157e4391461018257806379ba5097146101ad575b600080fd5b34801561013057600080fd5b5061014b600480360381019061014691906114da565b6104a6565b005b610155610566565b005b34801561016357600080fd5b5061016c61065f565b6040516101799190611577565b60405180910390f35b34801561018e57600080fd5b50610197610689565b6040516101a491906115a1565b60405180910390f35b3480156101b957600080fd5b506101c261069b565b005b3480156101d057600080fd5b506101d9610830565b6040516101e69190611577565b60405180910390f35b3480156101fb57600080fd5b50610216600480360381019061021191906115bc565b610856565b60405161022391906115a1565b60405180910390f35b34801561023857600080fd5b5061024161087a565b60405161024e9190611577565b60405180910390f35b34801561026357600080fd5b5061027e600480360381019061027991906115bc565b6108a3565b60405161028c929190611604565b60405180910390f35b3480156102a157600080fd5b506102aa6108e1565b6040516102b791906115a1565b60405180910390f35b3480156102cc57600080fd5b506102e760048036038101906102e29190611659565b6108e7565b6040516102f49190611686565b60405180910390f35b34801561030957600080fd5b50610324600480360381019061031f91906115bc565b610907565b60405161033191906115a1565b60405180910390f35b610354600480360381019061034f91906115bc565b61092b565b005b34801561036257600080fd5b5061037d600480360381019061037891906115bc565b610b40565b60405161038b92919061175f565b60405180910390f35b3480156103a057600080fd5b506103a9610cb8565b6040516103b691906115a1565b60405180910390f35b3480156103cb57600080fd5b506103d4610f20565b6040516103e191906115a1565b60405180910390f35b3480156103f657600080fd5b506103ff610f26565b60405161040c91906115a1565b60405180910390f35b34801561042157600080fd5b5061043c60048036038101906104379190611659565b610f33565b005b34801561044a57600080fd5b50610465600480360381019061046091906115bc565b610f47565b6040516104729190611577565b60405180910390f35b34801561048757600080fd5b50610490610f86565b60405161049d91906115a1565b60405180910390f35b7f000000000000000000000000000000000000000000000000000000000000000073ffffffffffffffffffffffffffffffffffffffff163373ffffffffffffffffffffffffffffffffffffffff161461055857337f00000000000000000000000000000000000000000000000000000000000000006040517f1cf993f400000000000000000000000000000000000000000000000000000000815260040161054f92919061178f565b60405180910390fd5b6105628282610f8c565b5050565b6003543410156105a2576040517f6c3d754a00000000000000000000000000000000000000000000000000000000815260040160405180910390fd5b6001600760003373ffffffffffffffffffffffffffffffffffffffff1673ffffffffffffffffffffffffffffffffffffffff16815260200190815260200160002060006101000a81548160ff0219169083151502179055506004339080600181540180825580915050600190039060005260206000200160009091909190916101000a81548173ffffffffffffffffffffffffffffffffffffffff021916908373ffffffffffffffffffffffffffffffffffffffff160217905550565b6000600660009054906101000a900473ffffffffffffffffffffffffffffffffffffffff16905090565b6000610693611086565b600d54905090565b600160009054906101000a900473ffffffffffffffffffffffffffffffffffffffff1673ffffffffffffffffffffffffffffffffffffffff163373ffffffffffffffffffffffffffffffffffffffff161461072b576040517f08c379a000000000000000000000000000000000000000000000000000000000815260040161072290611815565b60405180910390fd5b60008060009054906101000a900473ffffffffffffffffffffffffffffffffffffffff169050336000806101000a81548173ffffffffffffffffffffffffffffffffffffffff021916908373ffffffffffffffffffffffffffffffffffffffff1602179055506000600160006101000a81548173ffffffffffffffffffffffffffffffffffffffff021916908373ffffffffffffffffffffffffffffffffffffffff1602179055503373ffffffffffffffffffffffffffffffffffffffff168173ffffffffffffffffffffffffffffffffffffffff167f8be0079c531659141344cd1fd0a4f28419497f9722a3daafe3b4186f6b6457e060405160405180910390a350565b600660009054906101000a900473ffffffffffffffffffffffffffffffffffffffff1681565b600a818154811061086657600080fd5b906000526020600020016000915090505481565b60008060009054906101000a900473ffffffffffffffffffffffffffffffffffffffff16905090565b60086020528060005260406000206000915090508060000160009054906101000a900460ff16908060000160019054906101000a900460ff16905082565b60035481565b60076020528060005260406000206000915054906101000a900460ff1681565b600c818154811061091757600080fd5b906000526020600020016000915090505481565b600760003373ffffffffffffffffffffffffffffffffffffffff1673ffffffffffffffffffffffffffffffffffffffff16815260200190815260200160002060009054906101000a900460ff166109b7576040517f08c379a00000000000000000000000000000000000000000000000000000000081526004016109ae90611881565b60405180910390fd5b600d54811415610b0b5760003373ffffffffffffffffffffffffffffffffffffffff16476040516109e7906118d2565b60006040518083038185875af1925050503d8060008114610a24576040519150601f19603f3d011682016040523d82523d6000602084013e610a29565b606091505b5050905080610a64576040517fd3c9c2e800000000000000000000000000000000000000000000000000000000815260040160405180910390fd5b33600660006101000a81548173ffffffffffffffffffffffffffffffffffffffff021916908373ffffffffffffffffffffffffffffffffffffffff160217905550600067ffffffffffffffff811115610ac057610abf611397565b5b604051908082528060200260200182016040528015610aee5781602001602082028036833780820191505090505b5060049080519060200190610b04929190611243565b5050610b3d565b6040517fd3c9c2e800000000000000000000000000000000000000000000000000000000815260040160405180910390fd5b50565b600060606008600084815260200190815260200160002060000160019054906101000a900460ff16610ba7576040517f08c379a0000000000000000000000000000000000000000000000000000000008152600401610b9e90611933565b60405180910390fd5b6000600860008581526020019081526020016000206040518060600160405290816000820160009054906101000a900460ff161515151581526020016000820160019054906101000a900460ff1615151515815260200160018201805480602002602001604051908101604052809291908181526020018280548015610c4c57602002820191906000526020600020905b815481526020019060010190808311610c38575b50505050508152505090508060400151600c9080519060200190610c719291906112cd565b50600a600c600081548110610c8957610c88611953565b5b9060005260206000200154610c9e91906119b1565b600d81905550806000015181604001519250925050915091565b6000610cc2611086565b600960009054906101000a900473ffffffffffffffffffffffffffffffffffffffff1673ffffffffffffffffffffffffffffffffffffffff16635d3b1d30600e54600960149054906101000a900467ffffffffffffffff16600f60049054906101000a900461ffff16600f60009054906101000a900463ffffffff16600f60069054906101000a900463ffffffff166040518663ffffffff1660e01b8152600401610d71959493929190611a5a565b602060405180830381600087803b158015610d8b57600080fd5b505af1158015610d9f573d6000803e3d6000fd5b505050506040513d601f19601f82011682018060405250810190610dc39190611ac2565b90506040518060600160405280600015158152602001600115158152602001600067ffffffffffffffff811115610dfd57610dfc611397565b5b604051908082528060200260200182016040528015610e2b5781602001602082028036833780820191505090505b508152506008600083815260200190815260200160002060008201518160000160006101000a81548160ff02191690831515021790555060208201518160000160016101000a81548160ff0219169083151502179055506040820151816001019080519060200190610e9e9291906112cd565b50905050600a81908060018154018082558091505060019003906000526020600020016000909190919091505580600b819055507fcc58b13ad3eab50626c6a6300b1d139cd6ebb1688a7cced9461c2f7e762665ee81600f60069054906101000a900463ffffffff16604051610f15929190611aef565b60405180910390a190565b600d5481565b6000600480549050905090565b610f3b611086565b610f4481611116565b50565b60048181548110610f5757600080fd5b906000526020600020016000915054906101000a900473ffffffffffffffffffffffffffffffffffffffff1681565b600b5481565b6008600083815260200190815260200160002060000160019054906101000a900460ff16610fef576040517f08c379a0000000000000000000000000000000000000000000000000000000008152600401610fe690611933565b60405180910390fd5b60016008600084815260200190815260200160002060000160006101000a81548160ff021916908315150217905550806008600084815260200190815260200160002060010190805190602001906110489291906112cd565b507ffe2e2d779dba245964d4e3ef9b994be63856fd568bf7d3ca9e224755cb1bd54d828260405161107a929190611b18565b60405180910390a15050565b60008054906101000a900473ffffffffffffffffffffffffffffffffffffffff1673ffffffffffffffffffffffffffffffffffffffff163373ffffffffffffffffffffffffffffffffffffffff1614611114576040517f08c379a000000000000000000000000000000000000000000000000000000000815260040161110b90611b94565b60405180910390fd5b565b3373ffffffffffffffffffffffffffffffffffffffff168173ffffffffffffffffffffffffffffffffffffffff161415611185576040517f08c379a000000000000000000000000000000000000000000000000000000000815260040161117c90611c00565b60405180910390fd5b80600160006101000a81548173ffffffffffffffffffffffffffffffffffffffff021916908373ffffffffffffffffffffffffffffffffffffffff1602179055508073ffffffffffffffffffffffffffffffffffffffff1660008054906101000a900473ffffffffffffffffffffffffffffffffffffffff1673ffffffffffffffffffffffffffffffffffffffff167fed8889f560326eb138920d842192f0eb3dd22b4f139c87a2c57538e05bae127860405160405180910390a350565b8280548282559060005260206000209081019282156112bc579160200282015b828111156112bb5782518260006101000a81548173ffffffffffffffffffffffffffffffffffffffff021916908373ffffffffffffffffffffffffffffffffffffffff16021790555091602001919060010190611263565b5b5090506112c9919061131a565b5090565b828054828255906000526020600020908101928215611309579160200282015b828111156113085782518255916020019190600101906112ed565b5b509050611316919061131a565b5090565b5b8082111561133357600081600090555060010161131b565b5090565b6000604051905090565b600080fd5b600080fd5b6000819050919050565b61135e8161134b565b811461136957600080fd5b50565b60008135905061137b81611355565b92915050565b600080fd5b6000601f19601f8301169050919050565b7f4e487b7100000000000000000000000000000000000000000000000000000000600052604160045260246000fd5b6113cf82611386565b810181811067ffffffffffffffff821117156113ee576113ed611397565b5b80604052505050565b6000611401611337565b905061140d82826113c6565b919050565b600067ffffffffffffffff82111561142d5761142c611397565b5b602082029050602081019050919050565b600080fd5b600061145661145184611412565b6113f7565b905080838252602082019050602084028301858111156114795761147861143e565b5b835b818110156114a2578061148e888261136c565b84526020840193505060208101905061147b565b5050509392505050565b600082601f8301126114c1576114c0611381565b5b81356114d1848260208601611443565b91505092915050565b600080604083850312156114f1576114f0611341565b5b60006114ff8582860161136c565b925050602083013567ffffffffffffffff8111156115205761151f611346565b5b61152c858286016114ac565b9150509250929050565b600073ffffffffffffffffffffffffffffffffffffffff82169050919050565b600061156182611536565b9050919050565b61157181611556565b82525050565b600060208201905061158c6000830184611568565b92915050565b61159b8161134b565b82525050565b60006020820190506115b66000830184611592565b92915050565b6000602082840312156115d2576115d1611341565b5b60006115e08482850161136c565b91505092915050565b60008115159050919050565b6115fe816115e9565b82525050565b600060408201905061161960008301856115f5565b61162660208301846115f5565b9392505050565b61163681611556565b811461164157600080fd5b50565b6000813590506116538161162d565b92915050565b60006020828403121561166f5761166e611341565b5b600061167d84828501611644565b91505092915050565b600060208201905061169b60008301846115f5565b92915050565b600081519050919050565b600082825260208201905092915050565b6000819050602082019050919050565b6116d68161134b565b82525050565b60006116e883836116cd565b60208301905092915050565b6000602082019050919050565b600061170c826116a1565b61171681856116ac565b9350611721836116bd565b8060005b8381101561175257815161173988826116dc565b9750611744836116f4565b925050600181019050611725565b5085935050505092915050565b600060408201905061177460008301856115f5565b81810360208301526117868184611701565b90509392505050565b60006040820190506117a46000830185611568565b6117b16020830184611568565b9392505050565b600082825260208201905092915050565b7f4d7573742062652070726f706f736564206f776e657200000000000000000000600082015250565b60006117ff6016836117b8565b915061180a826117c9565b602082019050919050565b6000602082019050818103600083015261182e816117f2565b9050919050565b7f506c732070617920746f20656e746572207468652067616d6500000000000000600082015250565b600061186b6019836117b8565b915061187682611835565b602082019050919050565b6000602082019050818103600083015261189a8161185e565b9050919050565b600081905092915050565b50565b60006118bc6000836118a1565b91506118c7826118ac565b600082019050919050565b60006118dd826118af565b9150819050919050565b7f72657175657374206e6f7420666f756e64000000000000000000000000000000600082015250565b600061191d6011836117b8565b9150611928826118e7565b602082019050919050565b6000602082019050818103600083015261194c81611910565b9050919050565b7f4e487b7100000000000000000000000000000000000000000000000000000000600052603260045260246000fd5b7f4e487b7100000000000000000000000000000000000000000000000000000000600052601260045260246000fd5b60006119bc8261134b565b91506119c78361134b565b9250826119d7576119d6611982565b5b828206905092915050565b6000819050919050565b6119f5816119e2565b82525050565b600067ffffffffffffffff82169050919050565b611a18816119fb565b82525050565b600061ffff82169050919050565b611a3581611a1e565b82525050565b600063ffffffff82169050919050565b611a5481611a3b565b82525050565b600060a082019050611a6f60008301886119ec565b611a7c6020830187611a0f565b611a896040830186611a2c565b611a966060830185611a4b565b611aa36080830184611a4b565b9695505050505050565b600081519050611abc81611355565b92915050565b600060208284031215611ad857611ad7611341565b5b6000611ae684828501611aad565b91505092915050565b6000604082019050611b046000830185611592565b611b116020830184611a4b565b9392505050565b6000604082019050611b2d6000830185611592565b8181036020830152611b3f8184611701565b90509392505050565b7f4f6e6c792063616c6c61626c65206279206f776e657200000000000000000000600082015250565b6000611b7e6016836117b8565b9150611b8982611b48565b602082019050919050565b60006020820190508181036000830152611bad81611b71565b9050919050565b7f43616e6e6f74207472616e7366657220746f2073656c66000000000000000000600082015250565b6000611bea6017836117b8565b9150611bf582611bb4565b602082019050919050565b60006020820190508181036000830152611c1981611bdd565b905091905056fea2646970667358221220ef487530b93dda0789679de08cf416808b1a6016051e571d70680bab60cb3fce64736f6c63430008090033",
  "devdoc": {
    "kind": "dev",
    "methods": {},
    "version": 1
  },
  "userdoc": {
    "kind": "user",
    "methods": {
      "acceptOwnership()": {
        "notice": "Allows an ownership transfer to be completed by the recipient."
      },
      "owner()": {
        "notice": "Get the current owner"
      },
      "transferOwnership(address)": {
        "notice": "Allows an owner to begin transferring ownership to a new address, pending."
      }
    },
    "notice": "THIS IS AN EXAMPLE CONTRACT THAT USES HARDCODED VALUES FOR CLARITY. THIS IS AN EXAMPLE CONTRACT THAT USES UN-AUDITED CODE. DO NOT USE THIS CODE IN PRODUCTION.",
    "version": 1
  },
  "storageLayout": {
    "storage": [
      {
        "astId": 27,
        "contract": "contracts/NumberGuessingGame.sol:NumberGuessingGame",
        "label": "s_owner",
        "offset": 0,
        "slot": "0",
        "type": "t_address"
      },
      {
        "astId": 29,
        "contract": "contracts/NumberGuessingGame.sol:NumberGuessingGame",
        "label": "s_pendingOwner",
        "offset": 0,
        "slot": "1",
        "type": "t_address"
      },
      {
        "astId": 367,
        "contract": "contracts/NumberGuessingGame.sol:NumberGuessingGame",
        "label": "s_manager",
        "offset": 0,
        "slot": "2",
        "type": "t_address"
      },
      {
        "astId": 370,
        "contract": "contracts/NumberGuessingGame.sol:NumberGuessingGame",
        "label": "s_entranceFee",
        "offset": 0,
        "slot": "3",
        "type": "t_uint256"
      },
      {
        "astId": 373,
        "contract": "contracts/NumberGuessingGame.sol:NumberGuessingGame",
        "label": "players",
        "offset": 0,
        "slot": "4",
        "type": "t_array(t_address)dyn_storage"
      },
      {
        "astId": 375,
        "contract": "contracts/NumberGuessingGame.sol:NumberGuessingGame",
        "label": "correctNumber",
        "offset": 0,
        "slot": "5",
        "type": "t_uint256"
      },
      {
        "astId": 377,
        "contract": "contracts/NumberGuessingGame.sol:NumberGuessingGame",
        "label": "s_recentWinner",
        "offset": 0,
        "slot": "6",
        "type": "t_address"
      },
      {
        "astId": 381,
        "contract": "contracts/NumberGuessingGame.sol:NumberGuessingGame",
        "label": "paid",
        "offset": 0,
        "slot": "7",
        "type": "t_mapping(t_address,t_bool)"
      },
      {
        "astId": 407,
        "contract": "contracts/NumberGuessingGame.sol:NumberGuessingGame",
        "label": "s_requests",
        "offset": 0,
        "slot": "8",
        "type": "t_mapping(t_uint256,t_struct(RequestStatus)402_storage)"
      },
      {
        "astId": 410,
        "contract": "contracts/NumberGuessingGame.sol:NumberGuessingGame",
        "label": "COORDINATOR",
        "offset": 0,
        "slot": "9",
        "type": "t_contract(VRFCoordinatorV2Interface)351"
      },
      {
        "astId": 412,
        "contract": "contracts/NumberGuessingGame.sol:NumberGuessingGame",
        "label": "s_subscriptionId",
        "offset": 20,
        "slot": "9",
        "type": "t_uint64"
      },
      {
        "astId": 415,
        "contract": "contracts/NumberGuessingGame.sol:NumberGuessingGame",
        "label": "requestIds",
        "offset": 0,
        "slot": "10",
        "type": "t_array(t_uint256)dyn_storage"
      },
      {
        "astId": 417,
        "contract": "contracts/NumberGuessingGame.sol:NumberGuessingGame",
        "label": "lastRequestId",
        "offset": 0,
        "slot": "11",
        "type": "t_uint256"
      },
      {
        "astId": 420,
        "contract": "contracts/NumberGuessingGame.sol:NumberGuessingGame",
        "label": "correctNum",
        "offset": 0,
        "slot": "12",
        "type": "t_array(t_uint256)dyn_storage"
      },
      {
        "astId": 422,
        "contract": "contracts/NumberGuessingGame.sol:NumberGuessingGame",
        "label": "newNum",
        "offset": 0,
        "slot": "13",
        "type": "t_uint256"
      },
      {
        "astId": 425,
        "contract": "contracts/NumberGuessingGame.sol:NumberGuessingGame",
        "label": "keyHash",
        "offset": 0,
        "slot": "14",
        "type": "t_bytes32"
      },
      {
        "astId": 428,
        "contract": "contracts/NumberGuessingGame.sol:NumberGuessingGame",
        "label": "callbackGasLimit",
        "offset": 0,
        "slot": "15",
        "type": "t_uint32"
      },
      {
        "astId": 431,
        "contract": "contracts/NumberGuessingGame.sol:NumberGuessingGame",
        "label": "requestConfirmations",
        "offset": 4,
        "slot": "15",
        "type": "t_uint16"
      },
      {
        "astId": 434,
        "contract": "contracts/NumberGuessingGame.sol:NumberGuessingGame",
        "label": "numWords",
        "offset": 6,
        "slot": "15",
        "type": "t_uint32"
      }
    ],
    "types": {
      "t_address": {
        "encoding": "inplace",
        "label": "address",
        "numberOfBytes": "20"
      },
      "t_array(t_address)dyn_storage": {
        "base": "t_address",
        "encoding": "dynamic_array",
        "label": "address[]",
        "numberOfBytes": "32"
      },
      "t_array(t_uint256)dyn_storage": {
        "base": "t_uint256",
        "encoding": "dynamic_array",
        "label": "uint256[]",
        "numberOfBytes": "32"
      },
      "t_bool": {
        "encoding": "inplace",
        "label": "bool",
        "numberOfBytes": "1"
      },
      "t_bytes32": {
        "encoding": "inplace",
        "label": "bytes32",
        "numberOfBytes": "32"
      },
      "t_contract(VRFCoordinatorV2Interface)351": {
        "encoding": "inplace",
        "label": "contract VRFCoordinatorV2Interface",
        "numberOfBytes": "20"
      },
      "t_mapping(t_address,t_bool)": {
        "encoding": "mapping",
        "key": "t_address",
        "label": "mapping(address => bool)",
        "numberOfBytes": "32",
        "value": "t_bool"
      },
      "t_mapping(t_uint256,t_struct(RequestStatus)402_storage)": {
        "encoding": "mapping",
        "key": "t_uint256",
        "label": "mapping(uint256 => struct NumberGuessingGame.RequestStatus)",
        "numberOfBytes": "32",
        "value": "t_struct(RequestStatus)402_storage"
      },
      "t_struct(RequestStatus)402_storage": {
        "encoding": "inplace",
        "label": "struct NumberGuessingGame.RequestStatus",
        "members": [
          {
            "astId": 396,
            "contract": "contracts/NumberGuessingGame.sol:NumberGuessingGame",
            "label": "fulfilled",
            "offset": 0,
            "slot": "0",
            "type": "t_bool"
          },
          {
            "astId": 398,
            "contract": "contracts/NumberGuessingGame.sol:NumberGuessingGame",
            "label": "exists",
            "offset": 1,
            "slot": "0",
            "type": "t_bool"
          },
          {
            "astId": 401,
            "contract": "contracts/NumberGuessingGame.sol:NumberGuessingGame",
            "label": "randomWords",
            "offset": 0,
            "slot": "1",
            "type": "t_array(t_uint256)dyn_storage"
          }
        ],
        "numberOfBytes": "64"
      },
      "t_uint16": {
        "encoding": "inplace",
        "label": "uint16",
        "numberOfBytes": "2"
      },
      "t_uint256": {
        "encoding": "inplace",
        "label": "uint256",
        "numberOfBytes": "32"
      },
      "t_uint32": {
        "encoding": "inplace",
        "label": "uint32",
        "numberOfBytes": "4"
      },
      "t_uint64": {
        "encoding": "inplace",
        "label": "uint64",
        "numberOfBytes": "8"
      }
    }
  }
}