{
  "address": "0x26aE8668a5048eC814b83bDD41cC354d5602a2DD",
  "abi": [
    {
      "inputs": [],
      "stateMutability": "nonpayable",
      "type": "constructor"
    },
    {
      "inputs": [],
      "name": "VotingContract__VotingIsOver",
      "type": "error"
    },
    {
      "inputs": [],
      "name": "VotingContract__YouHaveVotedAlready",
      "type": "error"
    },
    {
      "inputs": [
        {
          "internalType": "string",
          "name": "fullName",
          "type": "string"
        },
        {
          "internalType": "string",
          "name": "department",
          "type": "string"
        },
        {
          "internalType": "string",
          "name": "matricNumber",
          "type": "string"
        },
        {
          "internalType": "string",
          "name": "image",
          "type": "string"
        },
        {
          "internalType": "uint256",
          "name": "voteCount",
          "type": "uint256"
        },
        {
          "internalType": "string",
          "name": "role",
          "type": "string"
        }
      ],
      "name": "addCandidates",
      "outputs": [],
      "stateMutability": "nonpayable",
      "type": "function"
    },
    {
      "inputs": [
        {
          "internalType": "uint256",
          "name": "",
          "type": "uint256"
        }
      ],
      "name": "candidates",
      "outputs": [
        {
          "internalType": "string",
          "name": "s_fullName",
          "type": "string"
        },
        {
          "internalType": "string",
          "name": "s_department",
          "type": "string"
        },
        {
          "internalType": "string",
          "name": "s_matricNumber",
          "type": "string"
        },
        {
          "internalType": "string",
          "name": "image",
          "type": "string"
        },
        {
          "internalType": "uint256",
          "name": "s_voteCount",
          "type": "uint256"
        },
        {
          "internalType": "string",
          "name": "s_role",
          "type": "string"
        }
      ],
      "stateMutability": "view",
      "type": "function"
    },
    {
      "inputs": [
        {
          "internalType": "string",
          "name": "person",
          "type": "string"
        },
        {
          "internalType": "string",
          "name": "role",
          "type": "string"
        },
        {
          "internalType": "string",
          "name": "err",
          "type": "string"
        }
      ],
      "name": "checkRoleStatus",
      "outputs": [],
      "stateMutability": "pure",
      "type": "function"
    },
    {
      "inputs": [],
      "name": "getAllCandidate",
      "outputs": [
        {
          "components": [
            {
              "internalType": "string",
              "name": "s_fullName",
              "type": "string"
            },
            {
              "internalType": "string",
              "name": "s_department",
              "type": "string"
            },
            {
              "internalType": "string",
              "name": "s_matricNumber",
              "type": "string"
            },
            {
              "internalType": "string",
              "name": "image",
              "type": "string"
            },
            {
              "internalType": "uint256",
              "name": "s_voteCount",
              "type": "uint256"
            },
            {
              "internalType": "string",
              "name": "s_role",
              "type": "string"
            }
          ],
          "internalType": "struct VotingContract.Candidates[]",
          "name": "",
          "type": "tuple[]"
        }
      ],
      "stateMutability": "view",
      "type": "function"
    },
    {
      "inputs": [],
      "name": "s_votingState",
      "outputs": [
        {
          "internalType": "enum VotingContract.VotingState",
          "name": "",
          "type": "uint8"
        }
      ],
      "stateMutability": "view",
      "type": "function"
    },
    {
      "inputs": [],
      "name": "stopVoting",
      "outputs": [],
      "stateMutability": "nonpayable",
      "type": "function"
    },
    {
      "inputs": [
        {
          "internalType": "uint256",
          "name": "",
          "type": "uint256"
        }
      ],
      "name": "users",
      "outputs": [
        {
          "internalType": "string",
          "name": "s_fullName",
          "type": "string"
        },
        {
          "internalType": "string",
          "name": "s_department",
          "type": "string"
        },
        {
          "internalType": "string",
          "name": "s_matricNumber",
          "type": "string"
        },
        {
          "internalType": "string",
          "name": "image",
          "type": "string"
        },
        {
          "internalType": "uint256",
          "name": "s_voteCount",
          "type": "uint256"
        },
        {
          "internalType": "string",
          "name": "s_role",
          "type": "string"
        }
      ],
      "stateMutability": "view",
      "type": "function"
    },
    {
      "inputs": [
        {
          "internalType": "uint256",
          "name": "index",
          "type": "uint256"
        }
      ],
      "name": "voteForPresident",
      "outputs": [],
      "stateMutability": "nonpayable",
      "type": "function"
    },
    {
      "inputs": [
        {
          "internalType": "uint256",
          "name": "index",
          "type": "uint256"
        }
      ],
      "name": "voteForSecretary",
      "outputs": [],
      "stateMutability": "nonpayable",
      "type": "function"
    },
    {
      "inputs": [
        {
          "internalType": "uint256",
          "name": "index",
          "type": "uint256"
        }
      ],
      "name": "voteForVicePresident",
      "outputs": [],
      "stateMutability": "nonpayable",
      "type": "function"
    }
  ],
  "transactionHash": "0x35bb8b6799cfe17f098593e7a520bf157e112fcd44cd75e4b98ad9c0fec86195",
  "args": [],
  "numDeployments": 1,
  "solcInputHash": "90e1318143a2b22f51ef16b4410da4cd",
  "bytecode": "0x608060405234801561001057600080fd5b50336000806101000a81548173ffffffffffffffffffffffffffffffffffffffff021916908373ffffffffffffffffffffffffffffffffffffffff1602179055506000600460006101000a81548160ff0219169083600181111561007757610076610081565b5b02179055506100b0565b7f4e487b7100000000000000000000000000000000000000000000000000000000600052602160045260246000fd5b611ef3806100bf6000396000f3fe608060405234801561001057600080fd5b506004361061009e5760003560e01c806358a4d98d1161006657806358a4d98d14610161578063ab1e56f61461017f578063efd5297c1461019b578063fab2f86b146101b9578063fe4e3c80146101c35761009e565b806319e9cadd146100a35780632f592270146100bf5780633477ee2e146100db578063365b98b214610110578063519a976914610145575b600080fd5b6100bd60048036038101906100b89190611671565b6101df565b005b6100d960048036038101906100d491906117e4565b61048a565b005b6100f560048036038101906100f09190611671565b6105e5565b60405161010796959493929190611994565b60405180910390f35b61012a60048036038101906101259190611671565b6108d9565b60405161013c96959493929190611994565b60405180910390f35b61015f600480360381019061015a9190611671565b610bbd565b005b610169610e68565b6040516101769190611a8f565b60405180910390f35b61019960048036038101906101949190611671565b610e7b565b005b6101a3611125565b6040516101b09190611c6a565b60405180910390f35b6101c1611468565b005b6101dd60048036038101906101d89190611c8c565b6114ed565b005b6001808111156101f2576101f1611a18565b5b600460009054906101000a900460ff16600181111561021457610213611a18565b5b141561024c576040517f9196b77500000000000000000000000000000000000000000000000000000000815260040160405180910390fd5b61036e6006828154811061026357610262611d33565b5b9060005260206000209060060201600501805461027f90611d91565b80601f01602080910402602001604051908101604052809291908181526020018280546102ab90611d91565b80156102f85780601f106102cd576101008083540402835291602001916102f8565b820191906000526020600020905b8154815290600101906020018083116102db57829003601f168201915b50505050506040518060400160405280600981526020017f53656372657461727900000000000000000000000000000000000000000000008152506040518060400160405280601081526020017f57726f6e672043617465676f72792053000000000000000000000000000000008152506114ed565b600360003373ffffffffffffffffffffffffffffffffffffffff1673ffffffffffffffffffffffffffffffffffffffff16815260200190815260200160002060009054906101000a900460ff16156103f2576040517fb769a33400000000000000000000000000000000000000000000000000000000815260040160405180910390fd5b60016006828154811061040857610407611d33565b5b906000526020600020906006020160040160008282546104289190611df2565b925050819055506001600360003373ffffffffffffffffffffffffffffffffffffffff1673ffffffffffffffffffffffffffffffffffffffff16815260200190815260200160002060006101000a81548160ff02191690831515021790555050565b60008054906101000a900473ffffffffffffffffffffffffffffffffffffffff1673ffffffffffffffffffffffffffffffffffffffff163373ffffffffffffffffffffffffffffffffffffffff16146104e257600080fd5b60006040518060c001604052808881526020018781526020018681526020018581526020018481526020018381525090506006819080600181540180825580915050600190039060005260206000209060060201600090919091909150600082015181600001908051906020019061055b929190611584565b506020820151816001019080519060200190610578929190611584565b506040820151816002019080519060200190610595929190611584565b5060608201518160030190805190602001906105b2929190611584565b506080820151816004015560a08201518160050190805190602001906105d9929190611584565b50505050505050505050565b600681815481106105f557600080fd5b906000526020600020906006020160009150905080600001805461061890611d91565b80601f016020809104026020016040519081016040528092919081815260200182805461064490611d91565b80156106915780601f1061066657610100808354040283529160200191610691565b820191906000526020600020905b81548152906001019060200180831161067457829003601f168201915b5050505050908060010180546106a690611d91565b80601f01602080910402602001604051908101604052809291908181526020018280546106d290611d91565b801561071f5780601f106106f45761010080835404028352916020019161071f565b820191906000526020600020905b81548152906001019060200180831161070257829003601f168201915b50505050509080600201805461073490611d91565b80601f016020809104026020016040519081016040528092919081815260200182805461076090611d91565b80156107ad5780601f10610782576101008083540402835291602001916107ad565b820191906000526020600020905b81548152906001019060200180831161079057829003601f168201915b5050505050908060030180546107c290611d91565b80601f01602080910402602001604051908101604052809291908181526020018280546107ee90611d91565b801561083b5780601f106108105761010080835404028352916020019161083b565b820191906000526020600020905b81548152906001019060200180831161081e57829003601f168201915b50505050509080600401549080600501805461085690611d91565b80601f016020809104026020016040519081016040528092919081815260200182805461088290611d91565b80156108cf5780601f106108a4576101008083540402835291602001916108cf565b820191906000526020600020905b8154815290600101906020018083116108b257829003601f168201915b5050505050905086565b60056020528060005260406000206000915090508060000180546108fc90611d91565b80601f016020809104026020016040519081016040528092919081815260200182805461092890611d91565b80156109755780601f1061094a57610100808354040283529160200191610975565b820191906000526020600020905b81548152906001019060200180831161095857829003601f168201915b50505050509080600101805461098a90611d91565b80601f01602080910402602001604051908101604052809291908181526020018280546109b690611d91565b8015610a035780601f106109d857610100808354040283529160200191610a03565b820191906000526020600020905b8154815290600101906020018083116109e657829003601f168201915b505050505090806002018054610a1890611d91565b80601f0160208091040260200160405190810160405280929190818152602001828054610a4490611d91565b8015610a915780601f10610a6657610100808354040283529160200191610a91565b820191906000526020600020905b815481529060010190602001808311610a7457829003601f168201915b505050505090806003018054610aa690611d91565b80601f0160208091040260200160405190810160405280929190818152602001828054610ad290611d91565b8015610b1f5780601f10610af457610100808354040283529160200191610b1f565b820191906000526020600020905b815481529060010190602001808311610b0257829003601f168201915b505050505090806004015490806005018054610b3a90611d91565b80601f0160208091040260200160405190810160405280929190818152602001828054610b6690611d91565b8015610bb35780601f10610b8857610100808354040283529160200191610bb3565b820191906000526020600020905b815481529060010190602001808311610b9657829003601f168201915b5050505050905086565b600180811115610bd057610bcf611a18565b5b600460009054906101000a900460ff166001811115610bf257610bf1611a18565b5b1415610c2a576040517f9196b77500000000000000000000000000000000000000000000000000000000815260040160405180910390fd5b610d4c60068281548110610c4157610c40611d33565b5b90600052602060002090600602016005018054610c5d90611d91565b80601f0160208091040260200160405190810160405280929190818152602001828054610c8990611d91565b8015610cd65780601f10610cab57610100808354040283529160200191610cd6565b820191906000526020600020905b815481529060010190602001808311610cb957829003601f168201915b50505050506040518060400160405280600e81526020017f5669636520507265736964656e740000000000000000000000000000000000008152506040518060400160405280601181526020017f57726f6e672043617465676f72792056700000000000000000000000000000008152506114ed565b600260003373ffffffffffffffffffffffffffffffffffffffff1673ffffffffffffffffffffffffffffffffffffffff16815260200190815260200160002060009054906101000a900460ff1615610dd0576040517fb769a33400000000000000000000000000000000000000000000000000000000815260040160405180910390fd5b600160068281548110610de657610de5611d33565b5b90600052602060002090600602016004016000828254610e069190611df2565b925050819055506001600260003373ffffffffffffffffffffffffffffffffffffffff1673ffffffffffffffffffffffffffffffffffffffff16815260200190815260200160002060006101000a81548160ff02191690831515021790555050565b600460009054906101000a900460ff1681565b600180811115610e8e57610e8d611a18565b5b600460009054906101000a900460ff166001811115610eb057610eaf611a18565b5b1415610ee8576040517f9196b77500000000000000000000000000000000000000000000000000000000815260040160405180910390fd5b61100a60068281548110610eff57610efe611d33565b5b90600052602060002090600602016005018054610f1b90611d91565b80601f0160208091040260200160405190810160405280929190818152602001828054610f4790611d91565b8015610f945780601f10610f6957610100808354040283529160200191610f94565b820191906000526020600020905b815481529060010190602001808311610f7757829003601f168201915b50505050506040518060400160405280600981526020017f507265736964656e7400000000000000000000000000000000000000000000008152506040518060400160405280601081526020017f57726f6e672043617465676f72792050000000000000000000000000000000008152506114ed565b600160003373ffffffffffffffffffffffffffffffffffffffff1673ffffffffffffffffffffffffffffffffffffffff16815260200190815260200160002060009054906101000a900460ff161561108e576040517fb769a33400000000000000000000000000000000000000000000000000000000815260040160405180910390fd5b6001600682815481106110a4576110a3611d33565b5b906000526020600020906006020160040160008282546110c49190611df2565b9250508190555060018060003373ffffffffffffffffffffffffffffffffffffffff1673ffffffffffffffffffffffffffffffffffffffff16815260200190815260200160002060006101000a81548160ff02191690831515021790555050565b60606006805480602002602001604051908101604052809291908181526020016000905b8282101561145f57838290600052602060002090600602016040518060c001604052908160008201805461117c90611d91565b80601f01602080910402602001604051908101604052809291908181526020018280546111a890611d91565b80156111f55780601f106111ca576101008083540402835291602001916111f5565b820191906000526020600020905b8154815290600101906020018083116111d857829003601f168201915b5050505050815260200160018201805461120e90611d91565b80601f016020809104026020016040519081016040528092919081815260200182805461123a90611d91565b80156112875780601f1061125c57610100808354040283529160200191611287565b820191906000526020600020905b81548152906001019060200180831161126a57829003601f168201915b505050505081526020016002820180546112a090611d91565b80601f01602080910402602001604051908101604052809291908181526020018280546112cc90611d91565b80156113195780601f106112ee57610100808354040283529160200191611319565b820191906000526020600020905b8154815290600101906020018083116112fc57829003601f168201915b5050505050815260200160038201805461133290611d91565b80601f016020809104026020016040519081016040528092919081815260200182805461135e90611d91565b80156113ab5780601f10611380576101008083540402835291602001916113ab565b820191906000526020600020905b81548152906001019060200180831161138e57829003601f168201915b50505050508152602001600482015481526020016005820180546113ce90611d91565b80601f01602080910402602001604051908101604052809291908181526020018280546113fa90611d91565b80156114475780601f1061141c57610100808354040283529160200191611447565b820191906000526020600020905b81548152906001019060200180831161142a57829003601f168201915b50505050508152505081526020019060010190611149565b50505050905090565b60008054906101000a900473ffffffffffffffffffffffffffffffffffffffff1673ffffffffffffffffffffffffffffffffffffffff163373ffffffffffffffffffffffffffffffffffffffff16146114c057600080fd5b6001600460006101000a81548160ff021916908360018111156114e6576114e5611a18565b5b0217905550565b816040516020016114fe9190611e84565b60405160208183030381529060405280519060200120836040516020016115259190611e84565b6040516020818303038152906040528051906020012014819061157e576040517f08c379a00000000000000000000000000000000000000000000000000000000081526004016115759190611e9b565b60405180910390fd5b50505050565b82805461159090611d91565b90600052602060002090601f0160209004810192826115b257600085556115f9565b82601f106115cb57805160ff19168380011785556115f9565b828001600101855582156115f9579182015b828111156115f85782518255916020019190600101906115dd565b5b509050611606919061160a565b5090565b5b8082111561162357600081600090555060010161160b565b5090565b6000604051905090565b600080fd5b600080fd5b6000819050919050565b61164e8161163b565b811461165957600080fd5b50565b60008135905061166b81611645565b92915050565b60006020828403121561168757611686611631565b5b60006116958482850161165c565b91505092915050565b600080fd5b600080fd5b6000601f19601f8301169050919050565b7f4e487b7100000000000000000000000000000000000000000000000000000000600052604160045260246000fd5b6116f1826116a8565b810181811067ffffffffffffffff821117156117105761170f6116b9565b5b80604052505050565b6000611723611627565b905061172f82826116e8565b919050565b600067ffffffffffffffff82111561174f5761174e6116b9565b5b611758826116a8565b9050602081019050919050565b82818337600083830152505050565b600061178761178284611734565b611719565b9050828152602081018484840111156117a3576117a26116a3565b5b6117ae848285611765565b509392505050565b600082601f8301126117cb576117ca61169e565b5b81356117db848260208601611774565b91505092915050565b60008060008060008060c0878903121561180157611800611631565b5b600087013567ffffffffffffffff81111561181f5761181e611636565b5b61182b89828a016117b6565b965050602087013567ffffffffffffffff81111561184c5761184b611636565b5b61185889828a016117b6565b955050604087013567ffffffffffffffff81111561187957611878611636565b5b61188589828a016117b6565b945050606087013567ffffffffffffffff8111156118a6576118a5611636565b5b6118b289828a016117b6565b93505060806118c389828a0161165c565b92505060a087013567ffffffffffffffff8111156118e4576118e3611636565b5b6118f089828a016117b6565b9150509295509295509295565b600081519050919050565b600082825260208201905092915050565b60005b8381101561193757808201518184015260208101905061191c565b83811115611946576000848401525b50505050565b6000611957826118fd565b6119618185611908565b9350611971818560208601611919565b61197a816116a8565b840191505092915050565b61198e8161163b565b82525050565b600060c08201905081810360008301526119ae818961194c565b905081810360208301526119c2818861194c565b905081810360408301526119d6818761194c565b905081810360608301526119ea818661194c565b90506119f96080830185611985565b81810360a0830152611a0b818461194c565b9050979650505050505050565b7f4e487b7100000000000000000000000000000000000000000000000000000000600052602160045260246000fd5b60028110611a5857611a57611a18565b5b50565b6000819050611a6982611a47565b919050565b6000611a7982611a5b565b9050919050565b611a8981611a6e565b82525050565b6000602082019050611aa46000830184611a80565b92915050565b600081519050919050565b600082825260208201905092915050565b6000819050602082019050919050565b600082825260208201905092915050565b6000611af2826118fd565b611afc8185611ad6565b9350611b0c818560208601611919565b611b15816116a8565b840191505092915050565b611b298161163b565b82525050565b600060c0830160008301518482036000860152611b4c8282611ae7565b91505060208301518482036020860152611b668282611ae7565b91505060408301518482036040860152611b808282611ae7565b91505060608301518482036060860152611b9a8282611ae7565b9150506080830151611baf6080860182611b20565b5060a083015184820360a0860152611bc78282611ae7565b9150508091505092915050565b6000611be08383611b2f565b905092915050565b6000602082019050919050565b6000611c0082611aaa565b611c0a8185611ab5565b935083602082028501611c1c85611ac6565b8060005b85811015611c585784840389528151611c398582611bd4565b9450611c4483611be8565b925060208a01995050600181019050611c20565b50829750879550505050505092915050565b60006020820190508181036000830152611c848184611bf5565b905092915050565b600080600060608486031215611ca557611ca4611631565b5b600084013567ffffffffffffffff811115611cc357611cc2611636565b5b611ccf868287016117b6565b935050602084013567ffffffffffffffff811115611cf057611cef611636565b5b611cfc868287016117b6565b925050604084013567ffffffffffffffff811115611d1d57611d1c611636565b5b611d29868287016117b6565b9150509250925092565b7f4e487b7100000000000000000000000000000000000000000000000000000000600052603260045260246000fd5b7f4e487b7100000000000000000000000000000000000000000000000000000000600052602260045260246000fd5b60006002820490506001821680611da957607f821691505b60208210811415611dbd57611dbc611d62565b5b50919050565b7f4e487b7100000000000000000000000000000000000000000000000000000000600052601160045260246000fd5b6000611dfd8261163b565b9150611e088361163b565b9250827fffffffffffffffffffffffffffffffffffffffffffffffffffffffffffffffff03821115611e3d57611e3c611dc3565b5b828201905092915050565b600081905092915050565b6000611e5e826118fd565b611e688185611e48565b9350611e78818560208601611919565b80840191505092915050565b6000611e908284611e53565b915081905092915050565b60006020820190508181036000830152611eb5818461194c565b90509291505056fea2646970667358221220c6b1c6ff2fc12cc9e5db89f83890f87f9fd0313a58916b677df8c6d304f77f5f64736f6c63430008090033",
  "devdoc": {
    "kind": "dev",
    "methods": {},
    "version": 1
  },
  "userdoc": {
    "kind": "user",
    "methods": {},
    "version": 1
  },
  "storageLayout": {
    "storage": [
      {
        "astId": 7,
        "contract": "contracts/VotingContract.sol:VotingContract",
        "label": "manager",
        "offset": 0,
        "slot": "0",
        "type": "t_address"
      },
      {
        "astId": 11,
        "contract": "contracts/VotingContract.sol:VotingContract",
        "label": "presidentVote",
        "offset": 0,
        "slot": "1",
        "type": "t_mapping(t_address,t_bool)"
      },
      {
        "astId": 15,
        "contract": "contracts/VotingContract.sol:VotingContract",
        "label": "vicePresidentVote",
        "offset": 0,
        "slot": "2",
        "type": "t_mapping(t_address,t_bool)"
      },
      {
        "astId": 19,
        "contract": "contracts/VotingContract.sol:VotingContract",
        "label": "secretaryVote",
        "offset": 0,
        "slot": "3",
        "type": "t_mapping(t_address,t_bool)"
      },
      {
        "astId": 25,
        "contract": "contracts/VotingContract.sol:VotingContract",
        "label": "s_votingState",
        "offset": 0,
        "slot": "4",
        "type": "t_enum(VotingState)22"
      },
      {
        "astId": 57,
        "contract": "contracts/VotingContract.sol:VotingContract",
        "label": "users",
        "offset": 0,
        "slot": "5",
        "type": "t_mapping(t_uint256,t_struct(Candidates)52_storage)"
      },
      {
        "astId": 102,
        "contract": "contracts/VotingContract.sol:VotingContract",
        "label": "candidates",
        "offset": 0,
        "slot": "6",
        "type": "t_array(t_struct(Candidates)52_storage)dyn_storage"
      }
    ],
    "types": {
      "t_address": {
        "encoding": "inplace",
        "label": "address",
        "numberOfBytes": "20"
      },
      "t_array(t_struct(Candidates)52_storage)dyn_storage": {
        "base": "t_struct(Candidates)52_storage",
        "encoding": "dynamic_array",
        "label": "struct VotingContract.Candidates[]",
        "numberOfBytes": "32"
      },
      "t_bool": {
        "encoding": "inplace",
        "label": "bool",
        "numberOfBytes": "1"
      },
      "t_enum(VotingState)22": {
        "encoding": "inplace",
        "label": "enum VotingContract.VotingState",
        "numberOfBytes": "1"
      },
      "t_mapping(t_address,t_bool)": {
        "encoding": "mapping",
        "key": "t_address",
        "label": "mapping(address => bool)",
        "numberOfBytes": "32",
        "value": "t_bool"
      },
      "t_mapping(t_uint256,t_struct(Candidates)52_storage)": {
        "encoding": "mapping",
        "key": "t_uint256",
        "label": "mapping(uint256 => struct VotingContract.Candidates)",
        "numberOfBytes": "32",
        "value": "t_struct(Candidates)52_storage"
      },
      "t_string_storage": {
        "encoding": "bytes",
        "label": "string",
        "numberOfBytes": "32"
      },
      "t_struct(Candidates)52_storage": {
        "encoding": "inplace",
        "label": "struct VotingContract.Candidates",
        "members": [
          {
            "astId": 41,
            "contract": "contracts/VotingContract.sol:VotingContract",
            "label": "s_fullName",
            "offset": 0,
            "slot": "0",
            "type": "t_string_storage"
          },
          {
            "astId": 43,
            "contract": "contracts/VotingContract.sol:VotingContract",
            "label": "s_department",
            "offset": 0,
            "slot": "1",
            "type": "t_string_storage"
          },
          {
            "astId": 45,
            "contract": "contracts/VotingContract.sol:VotingContract",
            "label": "s_matricNumber",
            "offset": 0,
            "slot": "2",
            "type": "t_string_storage"
          },
          {
            "astId": 47,
            "contract": "contracts/VotingContract.sol:VotingContract",
            "label": "image",
            "offset": 0,
            "slot": "3",
            "type": "t_string_storage"
          },
          {
            "astId": 49,
            "contract": "contracts/VotingContract.sol:VotingContract",
            "label": "s_voteCount",
            "offset": 0,
            "slot": "4",
            "type": "t_uint256"
          },
          {
            "astId": 51,
            "contract": "contracts/VotingContract.sol:VotingContract",
            "label": "s_role",
            "offset": 0,
            "slot": "5",
            "type": "t_string_storage"
          }
        ],
        "numberOfBytes": "192"
      },
      "t_uint256": {
        "encoding": "inplace",
        "label": "uint256",
        "numberOfBytes": "32"
      }
    }
  }
}