{
  "address": "0x7F85153335e14559a17c5953ee943D21f6992710",
  "abi": [
    {
      "inputs": [],
      "stateMutability": "nonpayable",
      "type": "constructor"
    },
    {
      "inputs": [],
      "name": "VotingNft__YouHaveVotedAlready",
      "type": "error"
    },
    {
      "inputs": [
        {
          "internalType": "string",
          "name": "fullName",
          "type": "string"
        },
        {
          "internalType": "string",
          "name": "department",
          "type": "string"
        },
        {
          "internalType": "string",
          "name": "matricNumber",
          "type": "string"
        },
        {
          "internalType": "string",
          "name": "image",
          "type": "string"
        },
        {
          "internalType": "uint256",
          "name": "voteCount",
          "type": "uint256"
        },
        {
          "internalType": "string",
          "name": "role",
          "type": "string"
        }
      ],
      "name": "addCandidates",
      "outputs": [],
      "stateMutability": "nonpayable",
      "type": "function"
    },
    {
      "inputs": [
        {
          "internalType": "uint256",
          "name": "",
          "type": "uint256"
        }
      ],
      "name": "candidates",
      "outputs": [
        {
          "internalType": "string",
          "name": "s_fullName",
          "type": "string"
        },
        {
          "internalType": "string",
          "name": "s_department",
          "type": "string"
        },
        {
          "internalType": "string",
          "name": "s_matricNumber",
          "type": "string"
        },
        {
          "internalType": "string",
          "name": "image",
          "type": "string"
        },
        {
          "internalType": "uint256",
          "name": "s_voteCount",
          "type": "uint256"
        },
        {
          "internalType": "string",
          "name": "s_role",
          "type": "string"
        }
      ],
      "stateMutability": "view",
      "type": "function"
    },
    {
      "inputs": [],
      "name": "getAllCandidate",
      "outputs": [
        {
          "components": [
            {
              "internalType": "string",
              "name": "s_fullName",
              "type": "string"
            },
            {
              "internalType": "string",
              "name": "s_department",
              "type": "string"
            },
            {
              "internalType": "string",
              "name": "s_matricNumber",
              "type": "string"
            },
            {
              "internalType": "string",
              "name": "image",
              "type": "string"
            },
            {
              "internalType": "uint256",
              "name": "s_voteCount",
              "type": "uint256"
            },
            {
              "internalType": "string",
              "name": "s_role",
              "type": "string"
            }
          ],
          "internalType": "struct VotingNft.Candidates[]",
          "name": "",
          "type": "tuple[]"
        }
      ],
      "stateMutability": "view",
      "type": "function"
    },
    {
      "inputs": [],
      "name": "stopVoting",
      "outputs": [],
      "stateMutability": "nonpayable",
      "type": "function"
    },
    {
      "inputs": [
        {
          "internalType": "uint256",
          "name": "",
          "type": "uint256"
        }
      ],
      "name": "users",
      "outputs": [
        {
          "internalType": "string",
          "name": "s_fullName",
          "type": "string"
        },
        {
          "internalType": "string",
          "name": "s_department",
          "type": "string"
        },
        {
          "internalType": "string",
          "name": "s_matricNumber",
          "type": "string"
        },
        {
          "internalType": "string",
          "name": "image",
          "type": "string"
        },
        {
          "internalType": "uint256",
          "name": "s_voteCount",
          "type": "uint256"
        },
        {
          "internalType": "string",
          "name": "s_role",
          "type": "string"
        }
      ],
      "stateMutability": "view",
      "type": "function"
    },
    {
      "inputs": [
        {
          "internalType": "uint256",
          "name": "index",
          "type": "uint256"
        }
      ],
      "name": "vote",
      "outputs": [],
      "stateMutability": "nonpayable",
      "type": "function"
    }
  ],
  "transactionHash": "0x76374cfcd10275f1b6eeeec6af8c7fb7fdf5d4fa86d3d4b0955e1e0725a628d4",
  "args": [],
  "numDeployments": 1,
  "solcInputHash": "ac56334c771bb6fa5cda54468bc33bb9",
  "bytecode": "0x608060405234801561001057600080fd5b50336000806101000a81548173ffffffffffffffffffffffffffffffffffffffff021916908373ffffffffffffffffffffffffffffffffffffffff1602179055506000600260006101000a81548160ff0219169083600181111561007757610076610081565b5b02179055506100b0565b7f4e487b7100000000000000000000000000000000000000000000000000000000600052602160045260246000fd5b611618806100bf6000396000f3fe608060405234801561001057600080fd5b50600436106100625760003560e01c80630121b93f146100675780632f592270146100835780633477ee2e1461009f578063365b98b2146100d4578063efd5297c14610109578063fab2f86b14610127575b600080fd5b610081600480360381019061007c9190610ea9565b610131565b005b61009d6004803603810190610098919061101c565b6102c1565b005b6100b960048036038101906100b49190610ea9565b61041c565b6040516100cb969594939291906111cc565b60405180910390f35b6100ee60048036038101906100e99190610ea9565b610710565b604051610100969594939291906111cc565b60405180910390f35b6101116109f4565b60405161011e9190611410565b60405180910390f35b61012f610d37565b005b60018081111561014457610143611432565b5b600260009054906101000a900460ff16600181111561016657610165611432565b5b146101a6576040517f08c379a000000000000000000000000000000000000000000000000000000000815260040161019d906114ad565b60405180910390fd5b600160003373ffffffffffffffffffffffffffffffffffffffff1673ffffffffffffffffffffffffffffffffffffffff16815260200190815260200160002060009054906101000a900460ff161561022a576040517fa5a0d20100000000000000000000000000000000000000000000000000000000815260040160405180910390fd5b6001600482815481106102405761023f6114cd565b5b90600052602060002090600602016004016000828254610260919061152b565b9250508190555060018060003373ffffffffffffffffffffffffffffffffffffffff1673ffffffffffffffffffffffffffffffffffffffff16815260200190815260200160002060006101000a81548160ff02191690831515021790555050565b60008054906101000a900473ffffffffffffffffffffffffffffffffffffffff1673ffffffffffffffffffffffffffffffffffffffff163373ffffffffffffffffffffffffffffffffffffffff161461031957600080fd5b60006040518060c0016040528088815260200187815260200186815260200185815260200184815260200183815250905060048190806001815401808255809150506001900390600052602060002090600602016000909190919091506000820151816000019080519060200190610392929190610dbc565b5060208201518160010190805190602001906103af929190610dbc565b5060408201518160020190805190602001906103cc929190610dbc565b5060608201518160030190805190602001906103e9929190610dbc565b506080820151816004015560a0820151816005019080519060200190610410929190610dbc565b50505050505050505050565b6004818154811061042c57600080fd5b906000526020600020906006020160009150905080600001805461044f906115b0565b80601f016020809104026020016040519081016040528092919081815260200182805461047b906115b0565b80156104c85780601f1061049d576101008083540402835291602001916104c8565b820191906000526020600020905b8154815290600101906020018083116104ab57829003601f168201915b5050505050908060010180546104dd906115b0565b80601f0160208091040260200160405190810160405280929190818152602001828054610509906115b0565b80156105565780601f1061052b57610100808354040283529160200191610556565b820191906000526020600020905b81548152906001019060200180831161053957829003601f168201915b50505050509080600201805461056b906115b0565b80601f0160208091040260200160405190810160405280929190818152602001828054610597906115b0565b80156105e45780601f106105b9576101008083540402835291602001916105e4565b820191906000526020600020905b8154815290600101906020018083116105c757829003601f168201915b5050505050908060030180546105f9906115b0565b80601f0160208091040260200160405190810160405280929190818152602001828054610625906115b0565b80156106725780601f1061064757610100808354040283529160200191610672565b820191906000526020600020905b81548152906001019060200180831161065557829003601f168201915b50505050509080600401549080600501805461068d906115b0565b80601f01602080910402602001604051908101604052809291908181526020018280546106b9906115b0565b80156107065780601f106106db57610100808354040283529160200191610706565b820191906000526020600020905b8154815290600101906020018083116106e957829003601f168201915b5050505050905086565b6003602052806000526040600020600091509050806000018054610733906115b0565b80601f016020809104026020016040519081016040528092919081815260200182805461075f906115b0565b80156107ac5780601f10610781576101008083540402835291602001916107ac565b820191906000526020600020905b81548152906001019060200180831161078f57829003601f168201915b5050505050908060010180546107c1906115b0565b80601f01602080910402602001604051908101604052809291908181526020018280546107ed906115b0565b801561083a5780601f1061080f5761010080835404028352916020019161083a565b820191906000526020600020905b81548152906001019060200180831161081d57829003601f168201915b50505050509080600201805461084f906115b0565b80601f016020809104026020016040519081016040528092919081815260200182805461087b906115b0565b80156108c85780601f1061089d576101008083540402835291602001916108c8565b820191906000526020600020905b8154815290600101906020018083116108ab57829003601f168201915b5050505050908060030180546108dd906115b0565b80601f0160208091040260200160405190810160405280929190818152602001828054610909906115b0565b80156109565780601f1061092b57610100808354040283529160200191610956565b820191906000526020600020905b81548152906001019060200180831161093957829003601f168201915b505050505090806004015490806005018054610971906115b0565b80601f016020809104026020016040519081016040528092919081815260200182805461099d906115b0565b80156109ea5780601f106109bf576101008083540402835291602001916109ea565b820191906000526020600020905b8154815290600101906020018083116109cd57829003601f168201915b5050505050905086565b60606004805480602002602001604051908101604052809291908181526020016000905b82821015610d2e57838290600052602060002090600602016040518060c0016040529081600082018054610a4b906115b0565b80601f0160208091040260200160405190810160405280929190818152602001828054610a77906115b0565b8015610ac45780601f10610a9957610100808354040283529160200191610ac4565b820191906000526020600020905b815481529060010190602001808311610aa757829003601f168201915b50505050508152602001600182018054610add906115b0565b80601f0160208091040260200160405190810160405280929190818152602001828054610b09906115b0565b8015610b565780601f10610b2b57610100808354040283529160200191610b56565b820191906000526020600020905b815481529060010190602001808311610b3957829003601f168201915b50505050508152602001600282018054610b6f906115b0565b80601f0160208091040260200160405190810160405280929190818152602001828054610b9b906115b0565b8015610be85780601f10610bbd57610100808354040283529160200191610be8565b820191906000526020600020905b815481529060010190602001808311610bcb57829003601f168201915b50505050508152602001600382018054610c01906115b0565b80601f0160208091040260200160405190810160405280929190818152602001828054610c2d906115b0565b8015610c7a5780601f10610c4f57610100808354040283529160200191610c7a565b820191906000526020600020905b815481529060010190602001808311610c5d57829003601f168201915b5050505050815260200160048201548152602001600582018054610c9d906115b0565b80601f0160208091040260200160405190810160405280929190818152602001828054610cc9906115b0565b8015610d165780601f10610ceb57610100808354040283529160200191610d16565b820191906000526020600020905b815481529060010190602001808311610cf957829003601f168201915b50505050508152505081526020019060010190610a18565b50505050905090565b60008054906101000a900473ffffffffffffffffffffffffffffffffffffffff1673ffffffffffffffffffffffffffffffffffffffff163373ffffffffffffffffffffffffffffffffffffffff1614610d8f57600080fd5b6001600260006101000a81548160ff02191690836001811115610db557610db4611432565b5b0217905550565b828054610dc8906115b0565b90600052602060002090601f016020900481019282610dea5760008555610e31565b82601f10610e0357805160ff1916838001178555610e31565b82800160010185558215610e31579182015b82811115610e30578251825591602001919060010190610e15565b5b509050610e3e9190610e42565b5090565b5b80821115610e5b576000816000905550600101610e43565b5090565b6000604051905090565b600080fd5b600080fd5b6000819050919050565b610e8681610e73565b8114610e9157600080fd5b50565b600081359050610ea381610e7d565b92915050565b600060208284031215610ebf57610ebe610e69565b5b6000610ecd84828501610e94565b91505092915050565b600080fd5b600080fd5b6000601f19601f8301169050919050565b7f4e487b7100000000000000000000000000000000000000000000000000000000600052604160045260246000fd5b610f2982610ee0565b810181811067ffffffffffffffff82111715610f4857610f47610ef1565b5b80604052505050565b6000610f5b610e5f565b9050610f678282610f20565b919050565b600067ffffffffffffffff821115610f8757610f86610ef1565b5b610f9082610ee0565b9050602081019050919050565b82818337600083830152505050565b6000610fbf610fba84610f6c565b610f51565b905082815260208101848484011115610fdb57610fda610edb565b5b610fe6848285610f9d565b509392505050565b600082601f83011261100357611002610ed6565b5b8135611013848260208601610fac565b91505092915050565b60008060008060008060c0878903121561103957611038610e69565b5b600087013567ffffffffffffffff81111561105757611056610e6e565b5b61106389828a01610fee565b965050602087013567ffffffffffffffff81111561108457611083610e6e565b5b61109089828a01610fee565b955050604087013567ffffffffffffffff8111156110b1576110b0610e6e565b5b6110bd89828a01610fee565b945050606087013567ffffffffffffffff8111156110de576110dd610e6e565b5b6110ea89828a01610fee565b93505060806110fb89828a01610e94565b92505060a087013567ffffffffffffffff81111561111c5761111b610e6e565b5b61112889828a01610fee565b9150509295509295509295565b600081519050919050565b600082825260208201905092915050565b60005b8381101561116f578082015181840152602081019050611154565b8381111561117e576000848401525b50505050565b600061118f82611135565b6111998185611140565b93506111a9818560208601611151565b6111b281610ee0565b840191505092915050565b6111c681610e73565b82525050565b600060c08201905081810360008301526111e68189611184565b905081810360208301526111fa8188611184565b9050818103604083015261120e8187611184565b905081810360608301526112228186611184565b905061123160808301856111bd565b81810360a08301526112438184611184565b9050979650505050505050565b600081519050919050565b600082825260208201905092915050565b6000819050602082019050919050565b600082825260208201905092915050565b600061129882611135565b6112a2818561127c565b93506112b2818560208601611151565b6112bb81610ee0565b840191505092915050565b6112cf81610e73565b82525050565b600060c08301600083015184820360008601526112f2828261128d565b9150506020830151848203602086015261130c828261128d565b91505060408301518482036040860152611326828261128d565b91505060608301518482036060860152611340828261128d565b915050608083015161135560808601826112c6565b5060a083015184820360a086015261136d828261128d565b9150508091505092915050565b600061138683836112d5565b905092915050565b6000602082019050919050565b60006113a682611250565b6113b0818561125b565b9350836020820285016113c28561126c565b8060005b858110156113fe57848403895281516113df858261137a565b94506113ea8361138e565b925060208a019950506001810190506113c6565b50829750879550505050505092915050565b6000602082019050818103600083015261142a818461139b565b905092915050565b7f4e487b7100000000000000000000000000000000000000000000000000000000600052602160045260246000fd5b7f566f74696e67206973204f766572000000000000000000000000000000000000600082015250565b6000611497600e83611140565b91506114a282611461565b602082019050919050565b600060208201905081810360008301526114c68161148a565b9050919050565b7f4e487b7100000000000000000000000000000000000000000000000000000000600052603260045260246000fd5b7f4e487b7100000000000000000000000000000000000000000000000000000000600052601160045260246000fd5b600061153682610e73565b915061154183610e73565b9250827fffffffffffffffffffffffffffffffffffffffffffffffffffffffffffffffff03821115611576576115756114fc565b5b828201905092915050565b7f4e487b7100000000000000000000000000000000000000000000000000000000600052602260045260246000fd5b600060028204905060018216806115c857607f821691505b602082108114156115dc576115db611581565b5b5091905056fea2646970667358221220961e4e74c16eb7709883797a396fe7978285e16de330fc75472664bdb5c3db3764736f6c63430008090033",
  "devdoc": {
    "kind": "dev",
    "methods": {},
    "version": 1
  },
  "userdoc": {
    "kind": "user",
    "methods": {},
    "version": 1
  },
  "storageLayout": {
    "storage": [
      {
        "astId": 5,
        "contract": "contracts/VotingNft.sol:VotingNft",
        "label": "manager",
        "offset": 0,
        "slot": "0",
        "type": "t_address"
      },
      {
        "astId": 9,
        "contract": "contracts/VotingNft.sol:VotingNft",
        "label": "voted",
        "offset": 0,
        "slot": "1",
        "type": "t_mapping(t_address,t_bool)"
      },
      {
        "astId": 15,
        "contract": "contracts/VotingNft.sol:VotingNft",
        "label": "s_votingState",
        "offset": 0,
        "slot": "2",
        "type": "t_enum(VotingState)12"
      },
      {
        "astId": 47,
        "contract": "contracts/VotingNft.sol:VotingNft",
        "label": "users",
        "offset": 0,
        "slot": "3",
        "type": "t_mapping(t_uint256,t_struct(Candidates)42_storage)"
      },
      {
        "astId": 62,
        "contract": "contracts/VotingNft.sol:VotingNft",
        "label": "candidates",
        "offset": 0,
        "slot": "4",
        "type": "t_array(t_struct(Candidates)42_storage)dyn_storage"
      },
      {
        "astId": 65,
        "contract": "contracts/VotingNft.sol:VotingNft",
        "label": "can",
        "offset": 0,
        "slot": "5",
        "type": "t_struct(Candidates)42_storage"
      }
    ],
    "types": {
      "t_address": {
        "encoding": "inplace",
        "label": "address",
        "numberOfBytes": "20"
      },
      "t_array(t_struct(Candidates)42_storage)dyn_storage": {
        "base": "t_struct(Candidates)42_storage",
        "encoding": "dynamic_array",
        "label": "struct VotingNft.Candidates[]",
        "numberOfBytes": "32"
      },
      "t_bool": {
        "encoding": "inplace",
        "label": "bool",
        "numberOfBytes": "1"
      },
      "t_enum(VotingState)12": {
        "encoding": "inplace",
        "label": "enum VotingNft.VotingState",
        "numberOfBytes": "1"
      },
      "t_mapping(t_address,t_bool)": {
        "encoding": "mapping",
        "key": "t_address",
        "label": "mapping(address => bool)",
        "numberOfBytes": "32",
        "value": "t_bool"
      },
      "t_mapping(t_uint256,t_struct(Candidates)42_storage)": {
        "encoding": "mapping",
        "key": "t_uint256",
        "label": "mapping(uint256 => struct VotingNft.Candidates)",
        "numberOfBytes": "32",
        "value": "t_struct(Candidates)42_storage"
      },
      "t_string_storage": {
        "encoding": "bytes",
        "label": "string",
        "numberOfBytes": "32"
      },
      "t_struct(Candidates)42_storage": {
        "encoding": "inplace",
        "label": "struct VotingNft.Candidates",
        "members": [
          {
            "astId": 31,
            "contract": "contracts/VotingNft.sol:VotingNft",
            "label": "s_fullName",
            "offset": 0,
            "slot": "0",
            "type": "t_string_storage"
          },
          {
            "astId": 33,
            "contract": "contracts/VotingNft.sol:VotingNft",
            "label": "s_department",
            "offset": 0,
            "slot": "1",
            "type": "t_string_storage"
          },
          {
            "astId": 35,
            "contract": "contracts/VotingNft.sol:VotingNft",
            "label": "s_matricNumber",
            "offset": 0,
            "slot": "2",
            "type": "t_string_storage"
          },
          {
            "astId": 37,
            "contract": "contracts/VotingNft.sol:VotingNft",
            "label": "image",
            "offset": 0,
            "slot": "3",
            "type": "t_string_storage"
          },
          {
            "astId": 39,
            "contract": "contracts/VotingNft.sol:VotingNft",
            "label": "s_voteCount",
            "offset": 0,
            "slot": "4",
            "type": "t_uint256"
          },
          {
            "astId": 41,
            "contract": "contracts/VotingNft.sol:VotingNft",
            "label": "s_role",
            "offset": 0,
            "slot": "5",
            "type": "t_string_storage"
          }
        ],
        "numberOfBytes": "192"
      },
      "t_uint256": {
        "encoding": "inplace",
        "label": "uint256",
        "numberOfBytes": "32"
      }
    }
  }
}